{
  "abi": [
    {
      "inputs": [
        {
          "internalType": "string",
          "name": "_name",
          "type": "string"
        },
        {
          "internalType": "string",
          "name": "_symbol",
          "type": "string"
        }
      ],
      "stateMutability": "payable",
      "type": "constructor"
    },
    {
      "inputs": [],
      "name": "DoesNotExist",
      "type": "error"
    },
    {
      "inputs": [],
      "name": "NoEthBalance",
      "type": "error"
    },
    {
      "inputs": [],
      "name": "NoTokensLeft",
      "type": "error"
    },
    {
      "inputs": [],
      "name": "NotEnoughETH",
      "type": "error"
    },
    {
      "anonymous": false,
      "inputs": [
        {
          "indexed": true,
          "internalType": "address",
          "name": "owner",
          "type": "address"
        },
        {
          "indexed": true,
          "internalType": "address",
          "name": "spender",
          "type": "address"
        },
        {
          "indexed": true,
          "internalType": "uint256",
          "name": "id",
          "type": "uint256"
        }
      ],
      "name": "Approval",
      "type": "event"
    },
    {
      "anonymous": false,
      "inputs": [
        {
          "indexed": true,
          "internalType": "address",
          "name": "owner",
          "type": "address"
        },
        {
          "indexed": true,
          "internalType": "address",
          "name": "operator",
          "type": "address"
        },
        {
          "indexed": false,
          "internalType": "bool",
          "name": "approved",
          "type": "bool"
        }
      ],
      "name": "ApprovalForAll",
      "type": "event"
    },
    {
      "anonymous": false,
      "inputs": [
        {
          "indexed": true,
          "internalType": "address",
          "name": "previousOwner",
          "type": "address"
        },
        {
          "indexed": true,
          "internalType": "address",
          "name": "newOwner",
          "type": "address"
        }
      ],
      "name": "OwnershipTransferred",
      "type": "event"
    },
    {
      "anonymous": false,
      "inputs": [
        {
          "indexed": true,
          "internalType": "address",
          "name": "from",
          "type": "address"
        },
        {
          "indexed": true,
          "internalType": "address",
          "name": "to",
          "type": "address"
        },
        {
          "indexed": true,
          "internalType": "uint256",
          "name": "id",
          "type": "uint256"
        }
      ],
      "name": "Transfer",
      "type": "event"
    },
    {
      "anonymous": false,
      "inputs": [
        {
          "indexed": true,
          "internalType": "address",
          "name": "owner",
          "type": "address"
        },
        {
          "indexed": true,
          "internalType": "uint256",
          "name": "id",
          "type": "uint256"
        },
        {
          "indexed": true,
          "internalType": "uint16",
          "name": "level",
          "type": "uint16"
        }
      ],
      "name": "setLevel",
      "type": "event"
    },
    {
      "inputs": [],
      "name": "PRICE_PER_MINT",
      "outputs": [
        {
          "internalType": "uint256",
          "name": "",
          "type": "uint256"
        }
      ],
      "stateMutability": "view",
      "type": "function"
    },
    {
      "inputs": [],
      "name": "TOTAL_SUPPLY",
      "outputs": [
        {
          "internalType": "uint256",
          "name": "",
          "type": "uint256"
        }
      ],
      "stateMutability": "view",
      "type": "function"
    },
    {
      "inputs": [
        {
          "internalType": "address",
          "name": "spender",
          "type": "address"
        },
        {
          "internalType": "uint256",
          "name": "id",
          "type": "uint256"
        }
      ],
      "name": "approve",
      "outputs": [],
      "stateMutability": "nonpayable",
      "type": "function"
    },
    {
      "inputs": [
        {
          "internalType": "address",
          "name": "owner",
          "type": "address"
        }
      ],
      "name": "balanceOf",
      "outputs": [
        {
          "internalType": "uint256",
          "name": "",
          "type": "uint256"
        }
      ],
      "stateMutability": "view",
      "type": "function"
    },
    {
      "inputs": [],
      "name": "baseURI",
      "outputs": [
        {
          "internalType": "string",
          "name": "",
          "type": "string"
        }
      ],
      "stateMutability": "view",
      "type": "function"
    },
    {
      "inputs": [
        {
          "internalType": "uint256",
          "name": "",
          "type": "uint256"
        }
      ],
      "name": "getApproved",
      "outputs": [
        {
          "internalType": "address",
          "name": "",
          "type": "address"
        }
      ],
      "stateMutability": "view",
      "type": "function"
    },
    {
      "inputs": [
        {
          "internalType": "uint256",
          "name": "id",
          "type": "uint256"
        }
      ],
      "name": "getLevelOf",
      "outputs": [
        {
          "internalType": "uint16",
          "name": "",
          "type": "uint16"
        }
      ],
      "stateMutability": "view",
      "type": "function"
    },
    {
      "inputs": [
        {
          "internalType": "address",
          "name": "",
          "type": "address"
        },
        {
          "internalType": "address",
          "name": "",
          "type": "address"
        }
      ],
      "name": "isApprovedForAll",
      "outputs": [
        {
          "internalType": "bool",
          "name": "",
          "type": "bool"
        }
      ],
      "stateMutability": "view",
      "type": "function"
    },
    {
      "inputs": [
        {
          "internalType": "uint256",
          "name": "",
          "type": "uint256"
        }
      ],
      "name": "levelOf",
      "outputs": [
        {
          "internalType": "uint16",
          "name": "",
          "type": "uint16"
        }
      ],
      "stateMutability": "view",
      "type": "function"
    },
    {
      "inputs": [
        {
          "internalType": "uint16",
          "name": "amount",
          "type": "uint16"
        }
      ],
      "name": "mint",
      "outputs": [],
      "stateMutability": "payable",
      "type": "function"
    },
    {
      "inputs": [],
      "name": "name",
      "outputs": [
        {
          "internalType": "string",
          "name": "",
          "type": "string"
        }
      ],
      "stateMutability": "view",
      "type": "function"
    },
    {
      "inputs": [],
      "name": "owner",
      "outputs": [
        {
          "internalType": "address",
          "name": "",
          "type": "address"
        }
      ],
      "stateMutability": "view",
      "type": "function"
    },
    {
      "inputs": [
        {
          "internalType": "uint256",
          "name": "id",
          "type": "uint256"
        }
      ],
      "name": "ownerOf",
      "outputs": [
        {
          "internalType": "address",
          "name": "owner",
          "type": "address"
        }
      ],
      "stateMutability": "view",
      "type": "function"
    },
    {
      "inputs": [],
      "name": "renounceOwnership",
      "outputs": [],
      "stateMutability": "nonpayable",
      "type": "function"
    },
    {
      "inputs": [
        {
          "internalType": "address",
          "name": "from",
          "type": "address"
        },
        {
          "internalType": "address",
          "name": "to",
          "type": "address"
        },
        {
          "internalType": "uint256",
          "name": "id",
          "type": "uint256"
        }
      ],
      "name": "safeTransferFrom",
      "outputs": [],
      "stateMutability": "nonpayable",
      "type": "function"
    },
    {
      "inputs": [
        {
          "internalType": "address",
          "name": "from",
          "type": "address"
        },
        {
          "internalType": "address",
          "name": "to",
          "type": "address"
        },
        {
          "internalType": "uint256",
          "name": "id",
          "type": "uint256"
        },
        {
          "internalType": "bytes",
          "name": "data",
          "type": "bytes"
        }
      ],
      "name": "safeTransferFrom",
      "outputs": [],
      "stateMutability": "nonpayable",
      "type": "function"
    },
    {
      "inputs": [
        {
          "internalType": "address",
          "name": "operator",
          "type": "address"
        },
        {
          "internalType": "bool",
          "name": "approved",
          "type": "bool"
        }
      ],
      "name": "setApprovalForAll",
      "outputs": [],
      "stateMutability": "nonpayable",
      "type": "function"
    },
    {
      "inputs": [
        {
          "internalType": "uint256",
          "name": "id",
          "type": "uint256"
        },
        {
          "internalType": "uint16",
          "name": "level",
          "type": "uint16"
        }
      ],
      "name": "setLevelOf",
      "outputs": [],
      "stateMutability": "nonpayable",
      "type": "function"
    },
    {
      "inputs": [
        {
          "internalType": "string",
          "name": "_baseURI",
          "type": "string"
        }
      ],
      "name": "setURI",
      "outputs": [],
      "stateMutability": "nonpayable",
      "type": "function"
    },
    {
      "inputs": [
        {
          "internalType": "bytes4",
          "name": "interfaceId",
          "type": "bytes4"
        }
      ],
      "name": "supportsInterface",
      "outputs": [
        {
          "internalType": "bool",
          "name": "",
          "type": "bool"
        }
      ],
      "stateMutability": "view",
      "type": "function"
    },
    {
      "inputs": [],
      "name": "symbol",
      "outputs": [
        {
          "internalType": "string",
          "name": "",
          "type": "string"
        }
      ],
      "stateMutability": "view",
      "type": "function"
    },
    {
      "inputs": [
        {
          "internalType": "uint256",
          "name": "id",
          "type": "uint256"
        }
      ],
      "name": "tokenURI",
      "outputs": [
        {
          "internalType": "string",
          "name": "",
          "type": "string"
        }
      ],
      "stateMutability": "view",
      "type": "function"
    },
    {
      "inputs": [],
      "name": "totalSupply",
      "outputs": [
        {
          "internalType": "uint256",
          "name": "",
          "type": "uint256"
        }
      ],
      "stateMutability": "view",
      "type": "function"
    },
    {
      "inputs": [
        {
          "internalType": "address",
          "name": "from",
          "type": "address"
        },
        {
          "internalType": "address",
          "name": "to",
          "type": "address"
        },
        {
          "internalType": "uint256",
          "name": "id",
          "type": "uint256"
        }
      ],
      "name": "transferFrom",
      "outputs": [],
      "stateMutability": "nonpayable",
      "type": "function"
    },
    {
      "inputs": [
        {
          "internalType": "address",
          "name": "newOwner",
          "type": "address"
        }
      ],
      "name": "transferOwnership",
      "outputs": [],
      "stateMutability": "nonpayable",
      "type": "function"
    },
    {
      "inputs": [],
      "name": "withdraw",
      "outputs": [],
      "stateMutability": "nonpayable",
      "type": "function"
    }
  ],
  "bytecode": {
    "object": "0x608060405260405162001bb838038062001bb8833981016040819052620000269162000185565b818160006200003683826200027e565b5060016200004582826200027e565b505050620000626200005c6200006a60201b60201c565b6200006e565b50506200034a565b3390565b600680546001600160a01b038381166001600160a01b0319831681179093556040519116919082907f8be0079c531659141344cd1fd0a4f28419497f9722a3daafe3b4186f6b6457e090600090a35050565b634e487b7160e01b600052604160045260246000fd5b600082601f830112620000e857600080fd5b81516001600160401b0380821115620001055762000105620000c0565b604051601f8301601f19908116603f01168101908282118183101715620001305762000130620000c0565b816040528381526020925086838588010111156200014d57600080fd5b600091505b8382101562000171578582018301518183018401529082019062000152565b600093810190920192909252949350505050565b600080604083850312156200019957600080fd5b82516001600160401b0380821115620001b157600080fd5b620001bf86838701620000d6565b93506020850151915080821115620001d657600080fd5b50620001e585828601620000d6565b9150509250929050565b600181811c908216806200020457607f821691505b6020821081036200022557634e487b7160e01b600052602260045260246000fd5b50919050565b601f8211156200027957600081815260208120601f850160051c81016020861015620002545750805b601f850160051c820191505b81811015620002755782815560010162000260565b5050505b505050565b81516001600160401b038111156200029a576200029a620000c0565b620002b281620002ab8454620001ef565b846200022b565b602080601f831160018114620002ea5760008415620002d15750858301515b600019600386901b1c1916600185901b17855562000275565b600085815260208120601f198616915b828110156200031b57888601518255948401946001909101908401620002fa565b50858210156200033a5787850151600019600388901b60f8161c191681555b5050505050600190811b01905550565b61185e806200035a6000396000f3fe6080604052600436106101815760003560e01c80636d5e3032116100d157806395d89b411161008a578063c87b56dd11610064578063c87b56dd14610465578063dc54886f14610485578063e985e9c5146104a5578063f2fde38b146104e057600080fd5b806395d89b4114610410578063a22cb46514610425578063b88d4fde1461044557600080fd5b80636d5e30321461034e57806370a0823114610392578063715018a6146103b257806386b8703b146103c75780638da5cb5b146103dc578063902d55a5146103fa57600080fd5b806323b872dd1161013e57806342842e0e1161011857806342842e0e146102d95780636352211e146102f95780636b5bdd76146103195780636c0360eb1461033957600080fd5b806323b872dd1461029157806323cf0a22146102b15780633ccfd60b146102c457600080fd5b806301ffc9a71461018657806302fe5305146101bb57806306fdde03146101dd578063081812fc146101ff578063095ea7b31461024d57806318160ddd1461026d575b600080fd5b34801561019257600080fd5b506101a66101a13660046112bc565b610500565b60405190151581526020015b60405180910390f35b3480156101c757600080fd5b506101db6101d63660046112f6565b610552565b005b3480156101e957600080fd5b506101f261056a565b6040516101b291906113a7565b34801561020b57600080fd5b5061023561021a3660046113f5565b6004602052600090815260409020546001600160a01b031681565b6040516001600160a01b0390911681526020016101b2565b34801561025957600080fd5b506101db610268366004611425565b6105f8565b34801561027957600080fd5b5061028360075481565b6040519081526020016101b2565b34801561029d57600080fd5b506101db6102ac36600461144f565b6106df565b6101db6102bf36600461149d565b6108a6565b3480156102d057600080fd5b506101db610939565b3480156102e557600080fd5b506101db6102f436600461144f565b61096e565b34801561030557600080fd5b506102356103143660046113f5565b610a66565b34801561032557600080fd5b506101db6103343660046114b8565b610abd565b34801561034557600080fd5b506101f2610b5f565b34801561035a57600080fd5b5061037f6103693660046113f5565b60096020526000908152604090205461ffff1681565b60405161ffff90911681526020016101b2565b34801561039e57600080fd5b506102836103ad3660046114e4565b610b6c565b3480156103be57600080fd5b506101db610bcf565b3480156103d357600080fd5b50610283600081565b3480156103e857600080fd5b506006546001600160a01b0316610235565b34801561040657600080fd5b5061028361271081565b34801561041c57600080fd5b506101f2610be1565b34801561043157600080fd5b506101db6104403660046114ff565b610bee565b34801561045157600080fd5b506101db61046036600461153b565b610c5a565b34801561047157600080fd5b506101f26104803660046113f5565b610d42565b34801561049157600080fd5b5061037f6104a03660046113f5565b610e16565b3480156104b157600080fd5b506101a66104c03660046115d6565b600560209081526000928352604080842090915290825290205460ff1681565b3480156104ec57600080fd5b506101db6104fb3660046114e4565b610e7e565b60006301ffc9a760e01b6001600160e01b03198316148061053157506380ac58cd60e01b6001600160e01b03198316145b8061054c5750635b5e139f60e01b6001600160e01b03198316145b92915050565b61055a610ef7565b60086105668282611688565b5050565b6000805461057790611600565b80601f01602080910402602001604051908101604052809291908181526020018280546105a390611600565b80156105f05780601f106105c5576101008083540402835291602001916105f0565b820191906000526020600020905b8154815290600101906020018083116105d357829003601f168201915b505050505081565b6000818152600260205260409020546001600160a01b03163381148061064157506001600160a01b038116600090815260056020908152604080832033845290915290205460ff165b6106835760405162461bcd60e51b815260206004820152600e60248201526d1393d517d055551213d49256915160921b60448201526064015b60405180910390fd5b60008281526004602052604080822080546001600160a01b0319166001600160a01b0387811691821790925591518593918516917f8c5be1e5ebec7d5bd14f71427d1e84f3dd0314c0f7b2291e5b200ac8c7c3b92591a4505050565b6000818152600260205260409020546001600160a01b038481169116146107355760405162461bcd60e51b815260206004820152600a60248201526957524f4e475f46524f4d60b01b604482015260640161067a565b6001600160a01b03821661077f5760405162461bcd60e51b81526020600482015260116024820152701253959053125117d49150d25412515395607a1b604482015260640161067a565b336001600160a01b03841614806107b957506001600160a01b038316600090815260056020908152604080832033845290915290205460ff165b806107da57506000818152600460205260409020546001600160a01b031633145b6108175760405162461bcd60e51b815260206004820152600e60248201526d1393d517d055551213d49256915160921b604482015260640161067a565b6001600160a01b0380841660008181526003602090815260408083208054600019019055938616808352848320805460010190558583526002825284832080546001600160a01b03199081168317909155600490925284832080549092169091559251849392917fddf252ad1be2c89b69c2b068fc378daa952ba7f163c4a11628f55a4df523b3ef91a4505050565b6127108161ffff166007546108bb919061175e565b106108d957604051637364ba1760e01b815260040160405180910390fd5b6108e8600061ffff8316611771565b34101561090857604051632c1d501360e11b815260040160405180910390fd5b60005b8161ffff168161ffff161015610566576007805460018101909155610931903390610f51565b60010161090b565b610941610ef7565b476000036109625760405163150111e760e31b815260040160405180910390fd5b61096c334761106c565b565b6109798383836106df565b6001600160a01b0382163b1580610a225750604051630a85bd0160e11b8082523360048301526001600160a01b03858116602484015260448301849052608060648401526000608484015290919084169063150b7a029060a4016020604051808303816000875af11580156109f2573d6000803e3d6000fd5b505050506040513d601f19601f82011682018060405250810190610a169190611788565b6001600160e01b031916145b610a615760405162461bcd60e51b815260206004820152601060248201526f155394d0519157d49150d2541251539560821b604482015260640161067a565b505050565b6000818152600260205260409020546001600160a01b031680610ab85760405162461bcd60e51b815260206004820152600a6024820152691393d517d3525395115160b21b604482015260640161067a565b919050565b6000828152600260205260409020546001600160a01b03163314610b0f5760405162461bcd60e51b81526020600482015260096024820152682727aa1027aba722a960b91b604482015260640161067a565b600082815260096020526040808220805461ffff191661ffff851690811790915590519091849133917f6f1e2731cfd6fc1cf4371470252f3d82c55d129d9281eced79d0d953d3d25e2291a45050565b6008805461057790611600565b60006001600160a01b038216610bb35760405162461bcd60e51b815260206004820152600c60248201526b5a45524f5f4144445245535360a01b604482015260640161067a565b506001600160a01b031660009081526003602052604090205490565b610bd7610ef7565b61096c60006110bd565b6001805461057790611600565b3360008181526005602090815260408083206001600160a01b03871680855290835292819020805460ff191686151590811790915590519081529192917f17307eab39ab6107e8899845ad3d59bd9653f200f220920489ca2b5937696c31910160405180910390a35050565b610c658585856106df565b6001600160a01b0384163b1580610cfc5750604051630a85bd0160e11b808252906001600160a01b0386169063150b7a0290610cad9033908a908990899089906004016117a5565b6020604051808303816000875af1158015610ccc573d6000803e3d6000fd5b505050506040513d601f19601f82011682018060405250810190610cf09190611788565b6001600160e01b031916145b610d3b5760405162461bcd60e51b815260206004820152601060248201526f155394d0519157d49150d2541251539560821b604482015260640161067a565b5050505050565b6000818152600260205260409020546060906001600160a01b0316610d7a5760405163b0ce759160e01b815260040160405180910390fd5b61054c60088054610d8a90611600565b80601f0160208091040260200160405190810160405280929190818152602001828054610db690611600565b8015610e035780601f10610dd857610100808354040283529160200191610e03565b820191906000526020600020905b815481529060010190602001808311610de657829003601f168201915b5050505050610e118461110f565b611153565b6000818152600260205260408120546001600160a01b0316610e675760405162461bcd60e51b815260206004820152600a6024820152691393d50813525395115160b21b604482015260640161067a565b5060009081526009602052604090205461ffff1690565b610e86610ef7565b6001600160a01b038116610eeb5760405162461bcd60e51b815260206004820152602660248201527f4f776e61626c653a206e6577206f776e657220697320746865207a65726f206160448201526564647265737360d01b606482015260840161067a565b610ef4816110bd565b50565b6006546001600160a01b0316331461096c5760405162461bcd60e51b815260206004820181905260248201527f4f776e61626c653a2063616c6c6572206973206e6f7420746865206f776e6572604482015260640161067a565b6001600160a01b038216610f9b5760405162461bcd60e51b81526020600482015260116024820152701253959053125117d49150d25412515395607a1b604482015260640161067a565b6000818152600260205260409020546001600160a01b031615610ff15760405162461bcd60e51b815260206004820152600e60248201526d1053149150511657d3525395115160921b604482015260640161067a565b6001600160a01b0382166000818152600360209081526040808320805460010190558483526002825280832080546001600160a01b031916851790556009909152808220805461ffff1916905551839291907fddf252ad1be2c89b69c2b068fc378daa952ba7f163c4a11628f55a4df523b3ef908290a45050565b600080600080600085875af1905080610a615760405162461bcd60e51b815260206004820152601360248201527211551217d514905394d1915497d19052531151606a1b604482015260640161067a565b600680546001600160a01b038381166001600160a01b0319831681179093556040519116919082907f8be0079c531659141344cd1fd0a4f28419497f9722a3daafe3b4186f6b6457e090600090a35050565b606060a06040510180604052602081039150506000815280825b600183039250600a81066030018353600a9004806111295750819003601f19909101908152919050565b805182516060918491849160009161116b919061175e565b67ffffffffffffffff811115611183576111836112e0565b6040519080825280601f01601f1916602001820160405280156111ad576020820181803683370190505b509050806000805b8551811015611225578581815181106111d0576111d06117f9565b01602001516001600160f81b03191683836111ea8161180f565b9450815181106111fc576111fc6117f9565b60200101906001600160f81b031916908160001a9053508061121d8161180f565b9150506111b5565b5060005b845181101561129957848181518110611244576112446117f9565b01602001516001600160f81b031916838361125e8161180f565b945081518110611270576112706117f9565b60200101906001600160f81b031916908160001a905350806112918161180f565b915050611229565b5090979650505050505050565b6001600160e01b031981168114610ef457600080fd5b6000602082840312156112ce57600080fd5b81356112d9816112a6565b9392505050565b634e487b7160e01b600052604160045260246000fd5b60006020828403121561130857600080fd5b813567ffffffffffffffff8082111561132057600080fd5b818401915084601f83011261133457600080fd5b813581811115611346576113466112e0565b604051601f8201601f19908116603f0116810190838211818310171561136e5761136e6112e0565b8160405282815287602084870101111561138757600080fd5b826020860160208301376000928101602001929092525095945050505050565b600060208083528351808285015260005b818110156113d4578581018301518582016040015282016113b8565b506000604082860101526040601f19601f8301168501019250505092915050565b60006020828403121561140757600080fd5b5035919050565b80356001600160a01b0381168114610ab857600080fd5b6000806040838503121561143857600080fd5b6114418361140e565b946020939093013593505050565b60008060006060848603121561146457600080fd5b61146d8461140e565b925061147b6020850161140e565b9150604084013590509250925092565b803561ffff81168114610ab857600080fd5b6000602082840312156114af57600080fd5b6112d98261148b565b600080604083850312156114cb57600080fd5b823591506114db6020840161148b565b90509250929050565b6000602082840312156114f657600080fd5b6112d98261140e565b6000806040838503121561151257600080fd5b61151b8361140e565b91506020830135801515811461153057600080fd5b809150509250929050565b60008060008060006080868803121561155357600080fd5b61155c8661140e565b945061156a6020870161140e565b935060408601359250606086013567ffffffffffffffff8082111561158e57600080fd5b818801915088601f8301126115a257600080fd5b8135818111156115b157600080fd5b8960208285010111156115c357600080fd5b9699959850939650602001949392505050565b600080604083850312156115e957600080fd5b6115f28361140e565b91506114db6020840161140e565b600181811c9082168061161457607f821691505b60208210810361163457634e487b7160e01b600052602260045260246000fd5b50919050565b601f821115610a6157600081815260208120601f850160051c810160208610156116615750805b601f850160051c820191505b818110156116805782815560010161166d565b505050505050565b815167ffffffffffffffff8111156116a2576116a26112e0565b6116b6816116b08454611600565b8461163a565b602080601f8311600181146116eb57600084156116d35750858301515b600019600386901b1c1916600185901b178555611680565b600085815260208120601f198616915b8281101561171a578886015182559484019460019091019084016116fb565b50858210156117385787850151600019600388901b60f8161c191681555b5050505050600190811b01905550565b634e487b7160e01b600052601160045260246000fd5b8082018082111561054c5761054c611748565b808202811582820484141761054c5761054c611748565b60006020828403121561179a57600080fd5b81516112d9816112a6565b6001600160a01b038681168252851660208201526040810184905260806060820181905281018290526000828460a0840137600060a0848401015260a0601f19601f85011683010190509695505050505050565b634e487b7160e01b600052603260045260246000fd5b60006001820161182157611821611748565b506001019056fea2646970667358221220bbff457f4914630da27dab077f13dd8ad9d3f0a52d094544f7be64515cfc16be64736f6c63430008110033",
    "linkReferences": {}
  },
  "methodIdentifiers": {
    "PRICE_PER_MINT()": "86b8703b",
    "TOTAL_SUPPLY()": "902d55a5",
    "approve(address,uint256)": "095ea7b3",
    "balanceOf(address)": "70a08231",
    "baseURI()": "6c0360eb",
    "getApproved(uint256)": "081812fc",
    "getLevelOf(uint256)": "dc54886f",
    "isApprovedForAll(address,address)": "e985e9c5",
    "levelOf(uint256)": "6d5e3032",
    "mint(uint16)": "23cf0a22",
    "name()": "06fdde03",
    "owner()": "8da5cb5b",
    "ownerOf(uint256)": "6352211e",
    "renounceOwnership()": "715018a6",
    "safeTransferFrom(address,address,uint256)": "42842e0e",
    "safeTransferFrom(address,address,uint256,bytes)": "b88d4fde",
    "setApprovalForAll(address,bool)": "a22cb465",
    "setLevelOf(uint256,uint16)": "6b5bdd76",
    "setURI(string)": "02fe5305",
    "supportsInterface(bytes4)": "01ffc9a7",
    "symbol()": "95d89b41",
    "tokenURI(uint256)": "c87b56dd",
    "totalSupply()": "18160ddd",
    "transferFrom(address,address,uint256)": "23b872dd",
    "transferOwnership(address)": "f2fde38b",
    "withdraw()": "3ccfd60b"
  },
  "id": 29
}